:100000000C942B050C94191F0C9448050C9448056E
:100010000C9448050C9448050C9448050C9448052C
:100020000C9448050C9448050C943F240C9413251B
:100030000C94981D0C9448050C9448050C944805A4
:100040000C9448050C9448050C9448050C944805FC
:100050000C9448050C943B1E0C9448050C944805E0
:100060000C9448050C9448050C9448050C944805DC
:100070000C9448050C9448050C9448050C944805CC
:100080000C9448050C9448050C9448050C944805BC
:100090000C9448050C9448050C9448050C944805AC
:1000A0000C9448050C9448050C9448050000000089
:1000B0000000000029003A003B003C003D003E00EB
:1000C00000000000000000001E001F0020002100B2
:1000D0002C08230000000000000000003500140080
:1000E0001A000800150017000000000000000000C2
:1000F0002B0004431600074109420A0000000000DB
:100100000000000029211D221B21062819240500BA
:100110000000000000000000A252A152A852A45208
:1001200088502C423F004000410042004300440000
:100130004500460039000000240025002600270065
:100140002D002E002A0049004A004B0018480C00E0
:10015000124613472F00300031004C004D004E0076
:100160001C000D420E000F453343340028000000F0
:10017000000000000B0010343638373138320000F0
:10018000B25200005200000011002C420000B45294
:10019000B852B1520000500051004F000000000062
:1001A00000000000005201000100010001000100F8
:1001B000000000000000000000000000000000003F
:1001C000000000000000000000000000000000002F
:1001D000000000000000000000000000000000001F
:1001E000000000000000000000000000000000000F
:1001F00000000000010000000000000000000000FE
:1002000000000000000000000100010001000100EA
:1002100001000100010001000100010001000100D6
:1002200001000100010001000000000000000000CA
:100230000000000000000100010001001E001F007E
:1002400020002A0000000000000001000100010061
:10025000670021002200230055000000010000007B
:100260000000000057002400250026005400000074
:1002700001000000A9000000560027000000010056
:100280000100010001000100AA00010000000000BF
:10029000000000000052000000000000000000000C
:1002A000000000000000000000000000000000004E
:1002B00000000000000000000000000000002A0014
:1002C0004A004B004E004D000000000000000000FE
:1002D00000004C005000520051004F000000000090
:1002E00000000000010000004C024901490200002A
:1002F00000000000000000000000000000000000FE
:1003000000000000000000000000000000000000ED
:1003100000000100010001000000000000000000DA
:100320000000000000000100010001004E004B0031
:100330004D002A0000000000000001000100010043
:100340004A00510052004F004C0000000100000024
:10035000000000005000000000004F1149000000A4
:1003600000000000A9000000501100000000000083
:100370000000000000000100AA00010000000000D1
:10038000000000000052000000000000000000001B
:10039000000000000000000000000000000000005D
:1003A0000000000000000000000000000000350216
:1003B0003500000000000000000000000000000008
:1003C00000001F022002210222022302000000007E
:1003D0000000000029001E022D0256002E023102EC
:1003E000000000000000000000000000000000000D
:1003F00000002C00000000000000000000000000D1
:1004000000000000000000000000000000000000EC
:1004100000000000000000000000000000002F00AD
:1004200030002A0000000000000000000000000072
:10043000670025022602270233023402280000004A
:1004400000000000240230023602370238020000A9
:1004500000000000000000002F022C00000000003F
:10046000000000000000000000000000000000008C
:10047000000000000052000000000000000000002A
:10048000000000000000000000000000000000006C
:10049000000000000000000000000000000000005C
:1004A000000000000000000000000000000000004C
:1004B000000000000000000000000000000000003C
:1004C000000000000000000000000000000000002C
:1004D000000000000000000000000000000000001C
:1004E000000000000000000000000000000000000C
:1004F00000000000000000000000000000000000FC
:100500000000000000000000000000002B0035008B
:100510004F1200000000000000000000000000007A
:100520005012510052004F0000000000280000004F
:10053000000000005000000000000000000000006B
:1005400000000000000000000000000000000000AB
:10055000000000000000000000000000000000009B
:10056000000000000000000000000000000000008B
:10057000000000000000000000000000000000007B
:1005800000000000000000000000000000003A0031
:100590003B003C003D0000000000000000000000A7
:1005A00000003E003F00400041000000000000004D
:1005B000000000000000420043004400450000002D
:1005C000000000000000000000000000000000002B
:1005D000000000000000000000000000000000001B
:1005E000000000000000000000000000000000000B
:1005F00000000000000000000000000000000000FB
:1006000000000000000000000000000000000000EA
:1006100000000000000000000000000000000000DA
:1006200000000000000000000000000000000000CA
:1006300000000000000000000000000000000000BA
:1006400000000000000000000000000000000000AA
:10065000000000000000000000000000000000009A
:10066000000000000000000000000000000000008A
:1006700000000000000000000000000000003A112F
:100680003B113C113D110000000000000000000083
:1006900000003F1140114111421100000000000014
:1006A00000000000000042114311441145110000F8
:1006B000000000000000000000000000000000003A
:1006C000000000000000000000000000000000002A
:1006D000000000000000000000000000000000001A
:1006E000000000000000000000000000000000000A
:1006F00000000000000000000000000000000000FA
:1007000000000000000000000000000000000000E9
:1007100000000000000000000000000000000000D9
:1007200000000000000000000000000000000000C9
:1007300000000000000000000000000000000000B9
:1007400000000000000000000000000000000000A9
:100750000000000000000000000000000000000099
:1007600000000000000000000000000000003A123D
:100770003B123C123D12000000000000000000008F
:1007800000003E123F124012411200000000000023
:100790000000000000004212431244124512000003
:1007A0000000000000000000000000000000000049
:1007B0000000000000000000000000000000000039
:1007C0000000000000000000000000000000000029
:1007D0000000000000000000000000000000000019
:1007E0000000000000000000000000000000000009
:1007F00000000000000000000000000000000000F9
:1008000000000000000000000000000000000000E8
:1008100000000000000000000000000000000000D8
:1008200000000000000000000000000000000000C8
:1008300000000000000000000000000000000000B8
:1008400000000000000000000000000000000000A8
:1008500000000000000000000000000000003A144A
:100860003B143C143D140000000000000000000098
:1008700000003E143F14401441140000000000002A
:10088000000000000000421443144414451400000A
:100890000000000000000000000000000000000058
:1008A0000000000000000000000000000000000048
:1008B0000000000000000000000000000000000038
:1008C0000000000000000000000000000000000028
:1008D0000000000000000000000000000000000018
:1008E0000000000000000000000000000000000008
:1008F00000000000000000000000000000000000F8
:1009000000000000000000000000000000000000E7
:100910000000000000000000000000001003730051
:1009200070006C0069007400380039000000160384
:100930006A00750072006100730073006900630053
:100940003700330000000403090409023B000201E0
:1009500000A0FA09040000010301010009211101AE
:100960000001224400070581030800010904010079
:100970000103000000092111010001227B0007058D
:1009800082032000011201000200000008EDFE00B9
:100990000001000102000105010902A1018502090F
:1009A00001A10005091901290815002501950875FF
:1009B0000181020501093009311581257F950275F4
:1009C00008810609381581257F950175088106057E
:1009D0000C0A38021581257F950175088106C0C073
:1009E00005010980A101850319012AB70015012617
:1009F000B700950175108100C0050C0901A10185A2
:100A00000419012AA002150126A002950175108182
:100A100000C005010906A101050719E029E7150035
:100A20002501950875018102950175088101050769
:100A3000190029FF150026FF00950675088100059D
:100A400008190129051500250195057501910295E3
:100A50000175039101C011241FBECFEFDAE0DEBFA4
:100A6000CDBF11E0A0E0B1E0E4EBFFE402C00590EF
:100A70000D92A23CB107D9F723E0A2ECB1E001C08E
:100A80001D92A232B207E1F70E94A4170C94992795
:100A90000C9400008930B8F46C30A8F44A3098F413
:100AA00050E09AE0699F400D511D1124FA0198E72A
:100AB000899FE00DF11D1124EE0FFF1FE455FF4F3C
:100AC00085919491089581E090E008950E944A05EF
:100AD000089581E008950E946905089581E00895D0
:100AE0000E94690508950E947005089508950E9466
:100AF00076050895A6E0B0E0E0E8F5E00C94F52670
:100B000049835A839E833091C90189819A81311129
:100B10001AC03E81332399F0222389F00E947B0B77
:100B2000182F682F89819A810E94570B69817A81D9
:100B3000812F0E9462122696E3E00C9411270E94F6
:100B4000690B182FF3CF0E947B0B69817A81F1CF5B
:100B5000FC01262F408151816281738184819581BE
:100B60000E947A050895CF93DF93EC0161E00E9423
:100B7000A805BE010E946B05DF91CF910895CF9328
:100B8000DF93EC0160E00E94A805BE010E9477059A
:100B9000DF91CF91089581E008950E94CB050895DB
:100BA000CF93C82F0E942C0A8C2F0E94CD052FEFC7
:100BB00084E39CE0215080409040E1F700C00000B9
:100BC000CF91089581E00E94D0050E945F1E089594
:100BD00080E00E94D0050E94701E08950F931F931D
:100BE000CF93DF938C0161E00E94A805EC01B8016E
:100BF0000E947305811106C080E0DF91CF911F91A3
:100C00000F910895B801CE010E94F71B8823A1F32C
:100C1000B801CE010E942118882371F3B801CE01DA
:100C20000E94F717882341F3F8018581882361F03A
:100C3000C330FCE7DF07E9F058F4C115ECE7DE0745
:100C4000A9F0C130DC47B9F0C8010E946E05D5CFCC
:100C5000CB358CE7D807A9F0CC35ECE7DE0771F08F
:100C6000CA35DC4789F70E94920FEECF0E94E20559
:100C7000C3CF0E949A0F0E94E805BECF0E94880F42
:100C8000E3CF0E94960FE0CF0E94741D0E946B0676
:100C900008950E946F060E94791D0895089581E0CD
:100CA00008950895CF93DF93D82F0E944F06C82F41
:100CB000882319F08D2F0E9451068C2FDF91CF9140
:100CC00008950895CF93C82F0E944E068C2F0E943E
:100CD0005206CF91089580E00E94620608950E9416
:100CE000401C0E9462060895CF930E94401CC82FAA
:100CF0008091C4018C1779F0C093C4010E94041E36
:100D00006093C5017093C6018093C7019093C80199
:100D10008C2F0E946206CF910895ADE0B0E0E3E928
:100D2000F6E00C94F626488759876A877B878C877C
:100D30009D8791110E94C80E1F8286E0FE013896A1
:100D4000DE01119601900D928A95E1F78D81811156
:100D50000DC029813A814B815C816D817E818F81BB
:100D60000E94120E2D96E2E00C941227CE010196FD
:100D70000E94B3058111EDCFF5CFFC012481213014
:100D800021F4808191810E94AD0B0895662329F0A2
:100D90000E9482190E94671A08950E94EE19FACFE4
:100DA000CF93C82F8823C9F08238C9F40E94541CFD
:100DB00081FD13C089E30E940A1D0E94370F2FEFA7
:100DC00087EE93E0215080409040E1F700C00000A2
:100DD00089E30E94121D0E94370FCF910895833836
:100DE000A1F40E94541C80FDF8CF83E50E940A1DE7
:100DF0000E94370F2FEF81EE94E021508040904009
:100E0000E1F700C0000083E5E4CF8438A1F40E943C
:100E1000541C82FDE2CF87E40E940A1D0E94370F16
:100E20002FEF81EE94E0215080409040E1F700C028
:100E3000000087E4CECF8CEF8C0F813A70F48C2FBA
:100E40000E94CF1C882329F08C2F0E94121D0E9423
:100E5000370F8C2F0E940A1DBECF80E28C0F883086
:100E600048F4C77081E001C0880FCA95EAF70E9474
:100E7000AB0EB1CFEBE5EC0FE33040F4F0E0EC5714
:100E8000FE4F808190E00E94701CA7CFE8E5EC0F38
:100E9000EB3150F4F0E0EE0FFF1FE25BFE4F80817C
:100EA00091810E94951C99CF83E38C0F833108F0C8
:100EB00094CF61E08C2F0E94C6068FCF882309F45F
:100EC00056C0823879F40E94541C81FF50C089E3D7
:100ED0000E940A1D0E94370F89E30E94121D0E9482
:100EE000370F0895833859F40E94541C80FF3FC087
:100EF00083E50E940A1D0E94370F83E5EECF8438F8
:100F000059F40E94541C82FF32C087E40E940A1DDB
:100F10000E94370F87E4E1CF9CEF980F913AE8F2F7
:100F200090E2980F983050F4877091E001C0990FCB
:100F30008A95EAF7892F0E94B10ED1CF9BE5980FD1
:100F4000933028F490E080E00E94701C089598E5AA
:100F5000980F9B3128F490E080E00E94951C089542
:100F600093E3980F933118F460E00E94C606089549
:100F70001F93CF93DF93182FEB010E94D006209789
:100F800039F4812F0E945E07DF91CF911F91089560
:100F90008FE99FE00197F1F700C000002197EFCFA4
:100FA00070E060E0893311F460E570E00E94B807FA
:100FB0000895882321F00E94AB0E0E94370F0895F8
:100FC000882321F00E94B10E0E94370F0895B0E0EF
:100FD000A0E0EDEEF7E00C94EF266C01D62FC72FC2
:100FE000FC011581068102950F700E94A10EE82E6A
:100FF0008823F9F0E12E1123E1F08C2F807F8034DB
:1010000061F080E28D0F883008F18C2F807E803275
:1010100021F4D230D8F00023C9F08091DA0282FFA7
:1010200015C082E00E945C0F0E94A10E91E0E82EA4
:10103000E926BC2EB2949FE0B922FBE0FB15B8F183
:10104000EB2DF0E0E556F84D0C94E026E12CF1CFC5
:101050000C2F0F70C07F11F00295007F112399F0C3
:10106000002359F080E28D0F883010F0D11107C0B5
:10107000802F0E94AB0E0E94370F8D2F5AC0802FF9
:101080000E94BB0EF8CF8D2F0E945E07002379F0DF
:1010900080E28D0F883010F0D11104C0802F0E94A3
:1010A000B10E03C0802F0E94C10E0E94370FEB2D9E
:1010B000E850FF0B349720F40E94401C0E94620607
:1010C000EE2089F00E949D0E80FD0DC0F601158274
:1010D0000E94970E0E94B50AC6010E94F3090E9461
:1010E000970E0E94C50ACDB7DEB7E9E00C940B2736
:1010F0002C2F2F70F22EC07FC03219F0F29480EFA7
:10110000F822DD2341F0D130D1F1112309F444C09C
:101110000023F1F0B2CF8091DA0282FD15C01123D5
:1011200059F0FF2029F08F2D0E94AB0E0E94370F3F
:1011300080E00E94D006BBCF80E00E945E07FF20C7
:1011400009F4B5CF8F2DABCF112369F0011104C085
:101150008F2D0E94D907ABCF013009F0A8CF8F2D7A
:101160000E94DF0EA4CF0111A2CF8F2D0E94E007B5
:101170008F2D0E94EB0E8F2D0E94CF0E98CF112342
:1011800021F0063008F093CFE3CF053008F08FCF81
:101190008F2D0E94E0078BCF0023D1F3D93349F480
:1011A0003FEF87EE93E0315080409040E1F700C080
:1011B00000008D2F0E945E077ACF8C2F8695869532
:1011C000837069F0813009F072CF8D2F9C2F93705E
:1011D000111102C080E090E00E94951C68CF8D2F15
:1011E0009C2F9370111102C080E090E00E94701C4F
:1011F0005ECF612F8D2F0E94C60659CF8C2F837032
:10120000A1F5111154CF4D2F429546954770440FCB
:10121000440F2D2F2F7030E0042E02C0220F331FF9
:101220000A94E2F790E080E0D4FF09C08FE090E0FC
:1012300002C0880F991F4A95E2F780959095C69550
:10124000C695C370822B932BC23049F058F4C1303D
:1012500019F00E94850A2BCF0E947C0A28CF0E9499
:101260008E0A25CF0E94790A22CF8695112311F08C
:101270008C2F8170882309F41ACF4D2F4295469503
:101280004770440F440F2D2F2F7030E0042E02C002
:10129000220F331F0A94E2F790E080E0D4FF09C0E8
:1012A0008FE090E002C0880F991F4A95E2F7809581
:1012B0009095C695C695C370822B932BC23049F08A
:1012C00058F4C13019F00E94F00AF1CE0E94E70AEA
:1012D000EECE0E94F90AEBCE0E949D0AE8CECF70B6
:1012E000112329F08C2F0E94B50A8D2F32CF8D2F1C
:1012F0000E94E0078C2F0E94C50AD9CED23F41F14F
:1013000060F4D03FB9F0D13F81F0112309F443C01C
:101310000111B3CE8C2F8F711FC0D33F01F1D43F89
:10132000A1F78091DA0282FD24C08C2F8F711123E6
:1013300011F312C0112341F0053008F0B8CE8C2F04
:101340008F710E94D70AB3CE063008F0B0CEF7CF27
:101350008C2F8F711111CFCF0E94B50AA8CE112307
:1013600029F08C2F8F710E94A90AA1CE0E94A40A95
:101370009ECE112331F063E08C2F8F710E943E0FBF
:1013800096CE81E00E945C0F023008F490CE82E09D
:101390000E945C0F8CCE002359F0D93309F009CF9D
:1013A000EFEFF7EE23E0E150F0402040E1F7FFCE11
:1013B0008C2F8F71A0CF0F931F93CF93DF93EC01EE
:1013C000688179818D810E94B80B8C010E94020B8B
:1013D0000E94780AB801CE010E94E707DF91CF9101
:1013E0001F910F910895CF93DF93EC018C81882397
:1013F00099F0CE010E94EE05811111C00E94A10E4C
:10140000882351F08D81882339F08091DA0282FFA0
:1014100003C082E00E945C0FDF91CF910895CE015E
:101420000E94DB09CE010E94BF05F6CF90E080E06C
:101430000E94701C90E080E00E94951C0E94C80EE3
:101440000E94370F0E94831A0E94671A08950E9413
:101450001A1D0E94160A08950E94B80E0E94270ABB
:10146000089592959F70963091F058F4925F9F7016
:10147000923058F4803F19F030F4883E30F481E027
:1014800008959A5FF4CF843FD1F380E00895883EB9
:10149000B0F3813FD1F7F3CFFC012481222339F04F
:1014A000808191810E94AD0B0E94310A089580E0F5
:1014B0000895A6E0B0E0EFE5FAE00C94F626269653
:1014C000E2E00C941227A7E0B0E0E9E6FAE00C9421
:1014D000F6262796E2E00C94122708950E946D0AE2
:1014E00008950E946E0A909309028093080208955D
:1014F00008950E94710A089520910802309109020E
:10150000822B932B0E94710A08952091080230913A
:101510000902822393230E94710A089520910802F0
:1015200030910902822793270E94710A08950E9430
:101530006D0A08950E94970A08950E949A0A90934E
:10154000070280930602089590E080E00E949D0AC1
:10155000089521E030E0A90102C0440F551F8A958B
:10156000E2F7CA010E949D0A089521E030E002C01E
:10157000220F331F8A95E2F78091060290910702AD
:10158000822B932B0E949D0A089521E030E002C037
:10159000220F331F8A95E2F720953095809106023D
:1015A00090910702822393230E949D0A089521E0CF
:1015B00030E002C0220F331F8A95E2F780910602C5
:1015C00090910702822793270E949D0A08952091F7
:1015D000060230910702822B932B0E949D0A0895E8
:1015E0002091060230910702822393230E949D0AD4
:1015F00008952091060230910702822793270E94C6
:101600009D0A08950895262F277091E001C0990F33
:101610002A95EAF723E0769567952A95E1F7660F14
:10162000771F660F771FFA01E60FF71F50E040E0C3
:10163000682F70E08191DF0111979B01042E02C099
:10164000369527950A94E2F72170219528272923BA
:1016500028272C934F5F5F4F4430510559F7089569
:10166000A82FA77023E0969587952A95E1F7880F14
:10167000991F880F991FFB01E80FF91F50E040E008
:1016800080E0219130E00A2E02C0369527950A9419
:10169000E2F721703327042E01C0220F0A94EAF7E3
:1016A000822B4F5F5F4F4430510559F70895262F25
:1016B0009C3070F48A3060F4682F70E08AE0989F64
:1016C000600D711D11244AEC51E0822F0E94030B22
:1016D0000895292F9C3068F48A3058F490E06AEC21
:1016E00071E03AE0239F800D911D11240E94300B80
:1016F000089580E00895B0E0A0E0E1E8FBE00C94FC
:10170000EF267C01009106021091070280910802E9
:1017100090910902082B192BCFE0D0E0CC24C39480
:10172000D12CBC2EC6010C2E02C0880F991F0A9422
:10173000E2F780239123892B49F4219790F7B12C6C
:101740008B2DCDB7DEB7E9E00C940B27B7018C2FBA
:101750000E946E12019789F3F3CFCF93DF93EC01D0
:101760000E947B0BBE010E946E12DF91CF91089503
:101770001F93CF93DF93EB019091C901992339F027
:10178000CB010E94AD0BDF91CF911F91089588236B
:1017900069F0CB010E947B0B182F682FCE010E94AD
:1017A000570BBE01812F0E946E12EDCFCB010E941C
:1017B000690B182FF6CF1F93CF93DF93C0910A02C6
:1017C00017E080910B028C1304C0DF91CF911F9121
:1017D0000895D0E01C9FF0011D9FF00D1124E45FDF
:1017E000FD4F2081318142815381648175818681E1
:1017F0000E94630A2196C770E4CF20914402309181
:101800004502409146025091470260914802709112
:10181000490280914A020E94630A0895CF93DF93A0
:1018200080914A02807F09F04DC08091490288234F
:1018300009F448C0E0910A0250910B02C0914502A0
:10184000D0914402609146027091470247E05E17D2
:10185000C9F18E2F90E0E49FF0011124E45FFD4F69
:101860002481222391F1489FF001499FF00D11241A
:10187000DF01A45FBD4F11962C9111972C1325C049
:101880002C912D1322C015962C91159721111DC056
:1018900012962D913C91261B370B283C3105A8F45C
:1018A00080914A028F70806180934A02EE5EFD4F04
:1018B00080818F708061808384E492E00E94F309CC
:1018C0000E94DB0BDF91CF910895FC013196E77008
:1018D000BECF482F20910A0290910B0257E02913A6
:1018E00002C080E0089530E0529FF001539FF00D58
:1018F0001124E45FFD4F8181681306C08081481385
:1019000003C085818111EECF2F5F3F4F2770E7CF56
:10191000A4E1B0E0EEE8FCE00C94EC268C0186E05B
:10192000F801DE011F9601900D928A95E1F7F8010A
:101930008481E58094E4A92E92E0B92E909148022A
:1019400091111FC08823D1F0EE20A9F0C8010E9498
:101950004C0AF82E882379F087E0F801D501019030
:101960000D928A95E1F7C5010E94BD060E940E0CFA
:101970000E94FD0B5FC0C8010E94F309FF24F3948D
:1019800059C0C080D18082809380F090490220911C
:10199000460230914702A401421B530BFF2009F479
:1019A000F9C0483C510508F0A7C0882309F442C09B
:1019B0009091450280914A02282F207F09F05CC057
:1019C0009D1116C090914402C91212C0E1104EC080
:1019D0008F70806180934A020E94FD0B84E492E044
:1019E0000E94F30980914A02F8018683F12C22C0FB
:1019F000E1103CC06D2D8C2D0E94690C6D2D8C2D3D
:101A00000E94690CE82E8111F1CFCF86D88A8F858C
:101A100098890E94AD0B292F22952F70243078F4DD
:101A20009F702230A8F09923B9F0F8019681907F39
:101A300099F4FE2C8F2D6496ECE00C9408272A5F15
:101A40002F70223068F0C8010E94F309EF2CF1CF0B
:101A5000992311F0882369F3805E883050F3F3CF27
:101A6000803F38F3815F833070F7E3CF80914A0283
:101A7000816080934A02BACF9D1113C090914402B5
:101A8000C9120FC0E1100DC08683C8010E94F3097E
:101A900087E0F801A4E4B2E001900D928A95E1F7A5
:101AA00067CFC8010E944C0A882309F464CFEE2056
:101AB00009F461CF80914A02803288F0209144027B
:101AC00030914502398728879B868A869091480203
:101AD0009C871D868E87CE0108960E94F30987E0B9
:101AE000F801A4E4B2E001900D928A95E1F70E941A
:101AF0000E0C0E94FD0B42CF90914A02292F207FAD
:101B0000A1F4682D9A8A898AA6017A899E2D0E945D
:101B1000590A84E492E00E94F30987E0F5011192EA
:101B20008A95E9F70E94FD0B61CF882309F482CFE3
:101B3000809145028D1110C080914402C8120CC0E2
:101B4000E1100AC09683C8010E94F30987E0F501FD
:101B500011928A95E9F76ECFC8010E944C0A88233A
:101B600009F409CFEE2009F406CF80914A028032B1
:101B700008F4B5CF20914402309145023A8329837D
:101B80009C828B82909148029D831E828F83CE011E
:101B90000196A3CF483C5105B8F5882309F4EECE51
:101BA000FE2CEE2009F4E7CE809145028D111EC077
:101BB00080914402C8121AC080914A0280FD0DC073
:101BC000982F907F51F08683903F09F45ECF982F35
:101BD000907F905F8F70892B57CF87E0F801A4E446
:101BE000B2E001900D928A95E1F724CFC8010E94DE
:101BF0004C0A811174CF80914A02816080934A021D
:101C0000C8010E94F30916CF682D9A8A898AA60115
:101C10007A899E2D0E94590A87E0F50111928A95D2
:101C2000E9F7A6CEAEE0B0E0E8E1FEE00C94F526E0
:101C3000288739874A875B876C877D878E87CE01A7
:101C400008960E94880C8823B1F06C85662341F0C9
:101C5000288539854A855B857D858E850E94630A46
:101C600017E080910A0290910B0289133DC02E96D5
:101C7000E3E00C94112787E0FE013896DE0111960F
:101C800001900D928A95E1F78C85882349F3209184
:101C90000B0230E0C90101968770992740910A0232
:101CA0004817190699F097E0929FD001939FB00DC5
:101CB0001124A45FBD4FFE01319601900D929A95BB
:101CC000E1F780930B020E94DB0BCACF0E942C0A23
:101CD00010920B0210920A0287E0E4E4F2E0DF01C6
:101CE0001D928A95E9F7BCCF819FC0011124845FC2
:101CF0009D4F0E94880C882309F4B9CFE0910A0215
:101D00001E9FF0011124E45FFD4F2081318142814B
:101D100053816481758186810E94630A80910A02E1
:101D200090E001968770992780930A029ACF80915C
:101D30005302869586958695089580915302877003
:101D4000089590915302977081E009F480E008951E
:101D500080915F02089590915F02892B80935F02CA
:101D60000895809590915F02982390935F02089563
:101D700010925F02089590915E02892B80935E021B
:101D80000895809590915E02982390935E02089545
:101D900010925E02089508950E94CB0E08959091CE
:101DA0005402292F282331F08095892380935402EF
:101DB0000E94CC0E089508950E94DB0E0895909124
:101DC0005502292F2823281729F0982B9093550284
:101DD0000E94DC0E089590915502292F282331F09E
:101DE00080958923809355020E94DC0E089580918E
:101DF0005502882329F01092550280E00E94DC0EE3
:101E000008950F931F93CF93DF93009100011091DA
:101E10000101C0915F0280915E02C82B8091550242
:101E2000882331F0C82B0E94BA1C81110E94F70E42
:101E3000F801C083C0910001D091010148E050E059
:101E40006BE472E0CE010E943127892B59F088E0C3
:101E5000FE01ABE4B2E001900D928A95E1F7CE016C
:101E60000E94571CDF91CF911F910F9108950E94FE
:101E7000010F089508950E943A0F08959091DA0293
:101E800092FF11C098E0899F90011124622B60930A
:101E900053020E94B50A80915302869586958695D5
:101EA0000E943B0F08950E94B50A089510925302B4
:101EB00080E00E943B0F0895909153028095892302
:101EC00080935302282F277069F4891759F0909155
:101ED000DA0292FF07C08695869586950E94C50A0C
:101EE0000E94560F08959091DA0292FB222720F962
:101EF000281769F080FB92F99093DA028091D90259
:101F00009091DA020E94BB0F82E00E945C0F08955C
:101F10008091DA0282FB882780F991E089270E946C
:101F2000730F089581E00E94730F089580E00E946E
:101F3000730F08956FEF7FEF90E080E00E9483279A
:101F4000089590E080E00E944F2721E0853E9E4F5B
:101F500009F020E0822F089582E090E00E94472758
:101F6000089583E090E00E944727089584E090E080
:101F70000E944F270895BC0184E090E00E948327CF
:101F80000895AB01BC018FE090E00E94772708958F
:101F9000AB01BC0183E190E00E947727089560E0E7
:101FA00070E0CB010E94C80F089560E070E0CB01A3
:101FB0000E94C10F0E94CF0F0895A8E0B0E0E3EEA9
:101FC000FFE00C94F62665EE7EEF90E080E00E9444
:101FD000832760E082E090E00E94652781E090E046
:101FE000909309028093080261E083E090E00E94F0
:101FF000652760E074E184E090E00E94832760E060
:1020000086E090E00E94652760E087E090E00E9413
:10201000652740E050E0BA0188E090E00E94772711
:1020200060E083E290E00E94652760E08CE090E051
:102030000E94652760E08DE090E00E94652719828C
:102040001A821B821C821D821E821F82188648E013
:1020500050E067E170E0CE0101960E94552740E014
:1020600050E0BA018FE190E00E9477270E94D50FDF
:102070002896E2E00C9412270E94DD0F0895682F45
:102080008EE090E00E9465270895A6E0B0E0EBE4C2
:10209000F0E10C94F4260E94F81D8C0180916002FE
:1020A000909161028017910781F019821A820E9433
:1020B000F81D682F49815A81792F80E090E00E94B5
:1020C0008D0610936102009360022696E4E00C9462
:1020D00010270E948A1360937E0270937F02809380
:1020E00080029093810260937A0270937B028093C6
:1020F0007C0290937D020895089508950E947C10BB
:10210000089508950E948110089581E0089584EA59
:1021100093E10E94B9170E947D100E947E100895DD
:102120000E94BB150895089508950E9493100E947F
:10213000941008950E94A10F811102C00E943C10CA
:102140000E94AC0F809382020E94B60F9093DA0235
:102150008093D9020E94DC170E94B10F90E00E9488
:10216000790A80910602909107020E949A0A0895C6
:102170000E94EF1D0E9464130E94BE150E94D0149D
:102180000E949A100E9461060E94DF170E94D015DB
:102190000E9482100895A6E0B0E0E1EDF0E10C9419
:1021A000EA260E94851081110CC00E9445100E94F1
:1021B000BB150E94A51A0E9474062696EEE00C94A8
:1021C00006270E94251522E6822E22E0922E640127
:1021D00010E0F601E190F1906F01812F0E94AE13A3
:1021E0001F5F1C3009F44BC0E816F90691F380918B
:1021F000820281FD0E94B7130E949010782E10E099
:1022000066246394812F0E94AE137C01F401A19097
:10221000B1904F018A159B0561F100E0CC24C39475
:10222000D12CAE24BF24C5018C219D21892BC1F066
:102230007720B1F009831A830E94F81D9C838B8359
:102240006D8221E0C7018C219D21892B09F420E0BA
:1022500049815A816B817C818D81922F0E948D06EC
:102260000F5FCC0CDD1C0A30F1F6F4013297F182DD
:10227000E0821F5F1C3031F60E94691098CFE8168B
:10228000F90609F0B4CF91CF1F93CF93DF930E944B
:102290007312EC01C11580E5D807F0F5C11580E493
:1022A000D80708F09CC0C03ED10520F5CD3CD10533
:1022B00008F082C0C83AD10578F4C53AD10508F0D3
:1022C00073C0C130D10519F1209709F1C430D1058F
:1022D000F0F4D0E0C0E01BC0C33CD105D0F7C85A31
:1022E000D0E0CC0FDD1FC957DE4F0990D881C02D3B
:1022F000D4640DC0C11580E2D80708F0D1C0C11563
:1023000081E0D80708F05AC0C83ED10510F7CE01C9
:10231000DF91CF911F910895C03682E5D80718F557
:10232000C03482E5D80708F06BC0C03282E5D80718
:1023300008F05FC0C11582E5D80708F497C02C2FBC
:102340002695269580E2289F900111248C2F83707A
:10235000C1E0D0E002C0CC0FDD1F8A95E2F7C22BAE
:10236000D32BDD68D4CFC03A82E5D80760F4C038FB
:1023700082E5D80708F459C0CF71D0E0DC2FCC2714
:10238000C46FD06AC4CFC03C82E5D80708F462C0ED
:10239000C03E82E5D80708F09CCFDC2FCC27CC27A5
:1023A000DF71C06FD06AB3CFC55AD0E0C354DE4FDF
:1023B000C881D0E0D064ABCFD065A9CF8D2F0E946B
:1023C0001513182FCE0199270E947312C12FD0E048
:1023D000DC2FCC27CC27DF71C82BD92B98CFCE018F
:1023E00099270E947312CC27DF70C82BD92BD06A93
:1023F0008ECFCF71D0E0DC2FCC27C16FD06A87CFD2
:102400002C2F26952695277080E2289F9001112475
:102410008C2F8370C1E0D0E002C0CC0FDD1F8A9505
:10242000E2F7C22BD32BDC6872CF2C2F2695269592
:10243000277080E2289F900111248C2F8370C1E0C7
:10244000D0E002C0CC0FDD1F8A95E2F7C22BD32B60
:10245000DA685DCF8C2F8F710E941513C82FD0E0E2
:10246000DC2FCC27CC27DF71D06251CF8C2F8F711E
:102470000E94151355E0D695C7955A95E1F7CF7090
:10248000D0E0DC2FCC27282F30E084FF05C044E0CB
:10249000220F331F4A95E1F7C22BD32BD06937CFD8
:1024A0008D2F8F710E941513182FCE0199270E942E
:1024B0007312C12FD0E0DC2FCC27CC27DF71C82BC3
:1024C000D92BD2CF462F7C3030F46A3020F4672FDE
:1024D0000E946605089590E080E008950E946212CF
:1024E0000E944411089582389105B9F1B0F4813306
:1024F000910509F47DC048F48932910509F46DC055
:102500008A32910509F47BC008958533910509F459
:102510005FC08933910509F10895833E9105D9F192
:1025200038F4803E910529F1823E910579F10895B4
:10253000863E9105D9F1873E910509F43EC0843E5F
:10254000910541F52091DA0221FF24C08091D90242
:1025500084FD19C087EE90E008952091D902237080
:1025600009F05AC02091DA0223FF14C089E290E0FA
:1025700008952091D90220FD38C03091DA0230FF51
:1025800009C024FF43C090E080E008952091D90263
:1025900022FDF7CF08952091D90222FD3AC0309153
:1025A000DA0230FD39C024FFF5CFEDCF2091D902FA
:1025B00023FFF0CF24FDE7CFCDCF2091D90223FD1B
:1025C0002EC03091DA0231FFEECF84EE90E0089514
:1025D0002091D90225FFDECFC9CF2091D90225FD58
:1025E00021C02091DA0223FFD5CF89E390E0D2CF3A
:1025F0002091D90226FFCECF8AE290E00895209163
:10260000D90226FFC7CF81E390E0089583EE90E0E2
:10261000089582EE90E0089580EE90E0089586EEB1
:1026200090E0089585E390E008959091D90292FF9B
:1026300010C041E0282F2471243009F040E031E03F
:10264000282F2871283009F030E0431711F02CE0D2
:10265000822793FF10C041E0282F2471243109F014
:1026600040E031E0282F2871283109F030E043178D
:1026700011F02CE082273091DA0230FF10C051E0D7
:10268000282F2171213009F050E041E0282F2871D6
:10269000283009F040E0541711F029E0822731FF7B
:1026A00010C041E0282F2171213109F040E031E0D4
:1026B000282F2871283109F030E0431711F029E064
:1026C000822794FD877E08951092DB021092DC022F
:1026D0001092DD021092DE020895CF92DF92EF9207
:1026E000FF926B017C010E94BB1581110EC00E94FC
:1026F000041EC61AD70AE80AF90AC092DB02D09271
:10270000DC02E092DD02F092DE02FF90EF90DF90BB
:10271000CF9008950F931F930E94BB15882329F033
:102720000E94041E1F910F9108950E94041E0091A3
:10273000DB021091DC022091DD023091DE02600F9D
:10274000711F821F931FEECF80E0089508950E94AD
:10275000A613089508950E94AA130895E82FF0E0A3
:10276000EE0FFF1FE850FD4F80819181089508957D
:1027700080EA8A95F1F7089500C008950E94B81381
:10278000089508950E94C1130895ACE0B0E0EBEC09
:10279000F3E10C94F2260E94BB15F82E6091100311
:1027A000882309F446C05CE0E52E8E010F5F1F4FC1
:1027B000F8018E2D11928A95E9F7862F90E0880F07
:1027C000991FB80188509D4F0E94DE158823C9F0DB
:1027D0008091DF0290E0880F991F4CE050E0B80133
:1027E00088509D4F0E94312721E020938302892B3E
:1027F00091F4F12C0E94AB138F2D2C96E6E00C94F3
:102800000E27809183028823A1F3F8011192EA94A4
:10281000E9F710928302A091DF02B0E0AA0FBB1F7C
:10282000A850BD4F8CE0F80101900D928A95E1F718
:10283000E1CF70E0660F771F68507D4F8091DF0217
:1028400090E0880F991F88509D4F0E9465160E9446
:10285000C213D2CFF894E82FE295EF70F0E031A1E7
:10286000282F2F7081E090E001C0880F2A95EAF7A9
:10287000982F9095932391A392A1892B82A378946A
:1028800008950F931F93CF93DF93CCE0D1E089910C
:102890008F3F11F00E942A1481E0C231D807B9F7A6
:1028A000C2E0D1E00CE011E089918F3F11F00E946D
:1028B0002A140C171D07C1F7DF91CF911F910F91BB
:1028C0000895AF92BF92DF92EF92FF920F931F9302
:1028D000CF93DF938C01D62EC62FD0E0CE01845F3C
:1028E0009E4F7C01FC0120812F3F09F44CC0F894DD
:1028F000E22FE295EF70F0E031A12F7081E090E0DF
:1029000001C0880F2A95EAF7932F982B91A392A1E3
:102910008095892382A378940E94BC13E2E0F1E0C1
:1029200041E050E0B12CA12C21912F3FB1F1A22F19
:10293000A295AF70B0E090968C9190E02F7002C09D
:10294000959587952A95E2F780FD27C0CA01A82AA8
:10295000B92A440F551F81E0EC30F80729F7F70139
:1029600080818F3F11F00E942A1461E0A114B1040C
:1029700009F460E08D2D0E94BE13CC0FDD1FC00F47
:10298000D11FB982A882DF91CF911F910F91FF9043
:10299000EF90DF90BF90AF90089590E080E0D7CFA8
:1029A000A0E1B0E0E6EDF4E10C94F626809112018E
:1029B000811127C086E0EEE3F1E0DE011B96019075
:1029C0000D928A95E1F7FE013B96ACE0B1E0CE01B5
:1029D00041969F0141914D93E817F907D9F78AE095
:1029E000E4E4F1E0DE01119601900D928A95E1F7A1
:1029F000FE013196A2E0B1E081918D93E217F307D9
:102A0000D9F78091120196E0811190E09093100324
:102A100086E0891B8093DF020E94411488E1E8EF81
:102A2000F2E0DF01982F1D929A95E9F7E0EEF2E0CF
:102A3000DF011D928A95E9F786E00E9465150E94E4
:102A4000A7136096E2E00C941227A8E1B0E0EBE255
:102A5000F5E10C94F3268E010F5F1F4F88E1F8011A
:102A600011928A95E9F7F12C6F2DC8010E9461142B
:102A7000F394F6E0FF12F8CF48E150E0B80180EEA1
:102A800092E00E94312721E0009709F420E0892B91
:102A900041F088E1F801A0EEB2E001900D928A9534
:102AA000E1F76091100370E0660F771F68507D4F6B
:102AB00046E080EE92E00E946615182F0E94C51332
:102AC000812B6896E5E00C940F270895B0E0A0E014
:102AD000ECE6F5E10C94F0266C017B01042FC22F8B
:102AE000222379F081E0809386020E94F81D909362
:102AF00085028093840280E0CDB7DEB7E8E00C94D5
:102B00000C27D0918602DD23B1F38091840290914D
:102B100085020E94101E059770F310E0000F111F30
:102B2000A801B601C7010E943127892B31F0A80105
:102B3000B601C7010E943E27CD2F109286028C2F2E
:102B4000DBCF519859988FE891E00197F1F700C0D9
:102B5000000089B1869581700895CF930E94BF26A9
:102B6000C82F811102C00E94BA268C2FCF910895E0
:102B700080918A0208958091890208950E94AD157E
:102B8000809389020E94A11580938A020E94B81541
:102B9000809312010E94BB1581110E9414160895A2
:102BA0000E94BB15811102C00E941716089581E092
:102BB00090918B029A3008F080E008950F931F9354
:102BC000CF93DF93EC018B0180918B028A30B8F4B4
:102BD000B801CE010E946216C82F811122C08091D7
:102BE0008B028F3FB9F40E94F81D90938802809366
:102BF00087028C2FDF91CF911F910F9108958091C3
:102C00008702909188020E94101E843F914000F735
:102C1000C0E0EFCF8F5F80938B028A3020F7C1E056
:102C2000E8CF10928B02E5CF0E94D31E08950E9438
:102C3000D61E0895B0E0A0E0E0E2F6E10C94F126A3
:102C40007901C82F880FDD0B41155105A9F0FE0150
:102C500093E0EE0FFF1F9A95E1F7ED5EFE4F818145
:102C6000928184579D4F208130E04217530708F42A
:102C70009A01A9010E943E27CE010E94BF1FD82EB3
:102C80008823D1F001151105B9F083E0CC0FDD1FC9
:102C90008A95E1F7FE01ED5EFE4F438150E0041797
:102CA000150708F4A801CD5EDE4F6C817D81645765
:102CB0007D4FC7010E943E278D2DCDB7DEB7E7E0DF
:102CC0000C940D270E94541708950E946B170895C5
:102CD000A4E0B0E0EEE6F6E10C94F4266091B102D7
:102CE0007091B2028091B3029091B4020E941F1EB3
:102CF00011E0643671058105910518F10E948A136F
:102D00006E5F7F4F8F4F9F4F69837A838B839C8346
:102D100010E000E030E020E044E050E0BE016F5FF2
:102D20007F4F82E00E941A16182F882351F00E94CC
:102D3000041E6093B1027093B2028093B302909329
:102D4000B402812F2496E4E00C941027B0E0A0E0B8
:102D5000ECEAF6E10C94EE267C015B016A010E942C
:102D6000D71501E010E0882311F00AE010E0C1E07F
:102D7000D0E0B501C701F6010995811104C0219683
:102D80000C171D072CF4CDB7DEB7EAE00C940A2728
:102D9000CC9F9001CD9F300D300D112490E080E04C
:102DA00045E34A95F1F70000019682179307C1F7B2
:102DB000E0CFADE0B0E0EFEDF6E10C94EE267B0164
:102DC000C090C001D090C10101E010E09E01235FDE
:102DD0003F4F50E040E070E060E080E00E941A1653
:102DE000182F882309F448C056018FEFA81AB80A93
:102DF0006091AD027091AE028091AF029091B002ED
:102E00000E941F1E643671058105910568F10CE072
:102E100010E09E012F5F3F4F50E040E070E060E027
:102E200081E00E941A16D82E6CE070E0C5010E9465
:102E3000E01711E09D85981310E01D2141F10E94DB
:102E4000041E6093AD027093AE028093AF02909324
:102E5000B0028CE0FE013196A1EAB2E001900D9241
:102E60008A95E1F711E013C06CE070E0C5010E94A3
:102E7000E0179D858913CBCF8CE0F6013196DE01FA
:102E8000119601900D928A95E1F71111E2CF8CE035
:102E9000E1EAF2E0D70101900D928A95E1F7812FE6
:102EA0002D96EAE00C940A270F931F93CF93DF939C
:102EB000EC018B0149ED56E10E94A616882331F002
:102EC00048E656E1B801CE010E94A616DF91CF91E7
:102ED0001F910F9108950F931F93CF93DF93C0918C
:102EE000C001D091C101CE0101962CE0FB01DC01B3
:102EF00001900D922A95E1F76CE070E00E94E017D6
:102F000088836D857E858F85988900919D021091BB
:102F10009E0220919F023091A002601771078207E4
:102F2000930751F060939D0270939E0280939F02DD
:102F30009093A0020E946D13DF91CF911F910F918A
:102F400008950E94CB1008950E94911D0E94762141
:102F50000E9487100E9490210E94B8100E949D211B
:102F60000E94A2210E94A1170E94BC210E949510DC
:102F7000F7CF9093C3018093C20108950E949A0FE6
:102F8000089580E00E94AE13817008950E94251577
:102F90002FEF86E791E0215080409040E1F700C09C
:102FA00000000E9425150E94C117882321F00E946D
:102FB000BE170E945F1E08950E94C61708950895C7
:102FC000FC01680F791F8FEF91E3E617F70709F40B
:102FD00008952191822728E030E087FF06C0880FFE
:102FE000892721503109C9F7F0CF880FFACFCF9345
:102FF000DF93EB0186319C4711F50E94A80E9D815D
:10300000992399F08A7A91E009F490E09093B502BF
:10301000811109C089E20E940A1D0E94370F80E0D9
:10302000DF91CF91089585E3F6CF8091B5028111AC
:1030300004C089E20E94121DF0CF85E3FBCF81E03E
:10304000EFCFCF93DF93EC01FB018581882309F457
:10305000D2C09E0130572332310508F0B2C00E9421
:10306000B60F9093DA028093D902FE01E150F04747
:10307000E232F10520F4E955F84D0C94E0268091F8
:10308000D90281608093D90293C08091DA0288606E
:103090008093DA028DC08091D9028260F3CF809153
:1030A000D9028460EFCF8091D9028860EBCF809104
:1030B000DA028160EDCF8091DA028260E9CF8091FF
:1030C000D9028061DFCF8091D9028062DBCF80910D
:1030D000D9028064D7CF0E942C0A8091D9028068DF
:1030E000D1CF8091D9028C60CDCF8091DA028360FC
:1030F000CFCF8091D9028E7FC5CF8091DA02877FB2
:10310000C7CF8091D9028D7FBDCF8091D9028B7FAF
:10311000B9CF8091D902877FB5CF8091DA028E7FB7
:10312000B7CF8091DA028D7FB3CF8091D9028F7EA5
:10313000A9CF8091D9028F7DA5CF8091D9028F7BB5
:10314000A1CF0E942C0A8091D9028F779BCF8091CA
:10315000D902837F97CF8091DA028C7F99CF8091BB
:10316000D90282FB992790F921E0922790FB82F9FE
:1031700090FB83F987CF8091DA02982F9095917018
:103180008E7F892B90FB81F983CF9091D902892F73
:103190008F7B96FF806476CF0E942C0A9091D90293
:1031A000892F97FB87F980586DCF81E00E943F10EF
:1031B0008091D9029091DA020E94BB0F0E942C0AE2
:1031C00080E0DF91CF91089580E0F0CF9091D90217
:1031D000892F8F7E94FF806155CF9091D902892FDE
:1031E0008E7F90FF81604ECF9091DA02892F877F8A
:1031F00093FF88604DCF81E0E4CF282F35EB230388
:10320000C001112497FF04C080589109892F0895A7
:1032100080589F4FFBCF8091BC0280FF0DC0609112
:10322000300170E0660F771F6038710570F5611529
:10323000710569F1862F089581FF07C06091300103
:1032400084E0689FB0011124EFCF6091300182FDCE
:103250000AC08091BB028823A9F020912F016091C0
:103260003001821710F088E0ECCF869FC001112456
:1032700033E0880F991F3A95E1F7622F70E00E94C2
:10328000CC26D2CF68E070E0D5CF8FE7089581E0FB
:1032900008958091BC0280FF0CC060912C0170E009
:1032A00075956795759567956115710549F1862F37
:1032B000089581FF06C060912C0170E075956795B7
:1032C000F3CF60912C0182FD0BC09091BA0299233B
:1032D000A1F060912B0180912C01961738F0682F96
:1032E00070E06038710500F38FE70895899FC00191
:1032F000112470E00E94CC26F4CF61E070E0D7CFBB
:1033000081E008959091BF022091C002922B2091FC
:10331000C202922B2091C102922B31F098E090933F
:10332000BB0291E09093BA028D3C31F40E940B19DC
:1033300081958093C00208958E3C19F40E940B1968
:10334000F8CF8F3C31F40E940B1981958093BF0216
:103350000895803D19F40E940B19F8CF893D29F496
:103360000E9449198093C10208958A3D21F40E9468
:1033700049198195F7CF8B3D31F40E944919819508
:103380008093C20208958C3D19F40E944919F8CF28
:103390009FE2980F983070F4815D990B21E030E046
:1033A00001C0220F8A95EAF78091BE02822B80939A
:1033B000BE0208958D3D31F48091BC0281608093FE
:1033C000BC0208958E3D21F48091BC028260F7CF4B
:1033D0008F3DB9F78091BC028460F1CF4091BF026C
:1033E0008D3C59F48091C00287FF0DC01092C0023D
:1033F00041110BC01092BB0208C08E3C81F4809139
:10340000C00218169CF3442381F08091C102909170
:10341000C202892B09F05AC01092BA0208958F3C5B
:1034200049F447FFF0CF1092BF028091C002811192
:10343000ECCFE0CF803D19F41416ACF3E4CF9091BB
:10344000C102893D29F41916F4F61092C102DBCFAE
:103450008A3D19F497FFD7CFF8CF9091C2028B3DE8
:1034600029F497FFD0CF1092C202CDCF8C3D19F432
:103470001916CCF3C8CF9FE2980F983090F4815D75
:10348000990B21E030E0B90102C0660F771F8A95E1
:10349000E2F7CB0180959091BE0289238093BE0212
:1034A000B2CF8D3D31F48091BC028E7F8093BC02FF
:1034B000AACF8E3D21F48091BC028D7FF7CF8F3D46
:1034C00009F0A1CF8091BC028B7FF0CF08950E94BC
:1034D000F81D9C019091BF028091C002982B21F0B1
:1034E0003093B9022093B8029091C1028091C20238
:1034F000982B21F03093B7022093B6028DEB92E027
:103500000E94621C089586E0EDEBF2E0DF011D925F
:103510008A95E9F71092BB021092BA021092BC028F
:103520000895FC01828181110EC0838181110BC03D
:103530008481811108C091E08581811101C090E0F2
:10354000892F8170089581E0FCCFA6E0B0E0EBEA1E
:10355000FAE10C94F52686E0EDEBF2E0DE0111963F
:1035600001900D928A95E1F71092BF021092C0026D
:103570001092C1021092C2028B819C81892B89F02A
:103580008091B8029091B9020E94101EAC019091F6
:10359000BB029923C9F1809131018417150608F403
:1035A00040C08D819E81892B91F08091B6029091CF
:1035B000B7020E94101EAC019091BA02992309F43F
:1035C0006AC080912D018417150608F472C0BE01EF
:1035D0006F5F7F4F8DEB92E00E94251D811105C02A
:1035E0008DEB92E00E94911A81110E94671A86E089
:1035F000FE013196ADEBB2E001900D928A95E1F7B4
:103600002696E3E00C941127209132018AE0289F4E
:10361000900111242417350720F69F5F9093BB0279
:1036200002C09F3FD1F71B81112359F00E940B1953
:103630009FEF11160CF491E0899F802D1124809347
:10364000BF021C81112359F00E940B199FEF111624
:103650000CF491E0899F802D11248093C002809109
:10366000BF02882309F49DCF1091C002112309F4F1
:1036700098CF0E94FD18882351F08093BF02812FBC
:103680000E94FD18882329F08093C0028ACF81E030
:10369000F4CF81E0F9CF20912E018AE0289F90019C
:1036A00011242417350708F092CF9F5F9093BA0238
:1036B00002C09F3FD1F71D81112359F00E94491983
:1036C0009FEF11160CF491E0899F802D11248093B7
:1036D000C1021E81112359F00E9449199FEF111652
:1036E0000CF491E0899F802D11248093C202809177
:1036F000C102882309F46BCF1091C202112309F48F
:1037000066CF0E94FD18882351F08093C102812F5B
:103710000E94FD18882329F08093C20258CF81E0CF
:10372000F4CF81E0F9CF0F931F93CF93DF93C42F92
:10373000D22FFC0185818823C9F04093C5020E94E5
:10374000F81D9093C4028093C30280E28C0F8830EE
:1037500040F4C77081E001C0880FCA95EAF70E9463
:10376000D907DF91CF911F910F9108951091C50254
:10377000141332C08091C3029091C4020E94101EA3
:10378000883C910548F5C0E2CD0F1D17B9F080E2E5
:10379000810F883040F4177081E001C0880F1A95BE
:1037A000EAF70E94E007C83048F481E09D2F977047
:1037B00001C0880F9A95EAF70E94D907802F0E94CE
:1037C000D007C83070F6D77081E001C0880FDA9555
:1037D000EAF70E94E007C5CF80E28C0F883008F638
:1037E000C77081E001C0880FCA95EAF7F2CF0F9346
:1037F000DB0188519C4787309105A0F5FC01E75318
:10380000F84D0C94E02606E221EE41EE6AE17CE7F9
:10381000CD010E94931B80E00F91089507E225EEF1
:1038200045EE6BE17CE7F4CF06E221EE40EE68E185
:103830007CE7EECF07E225EE44EE69E17CE7E8CFD6
:1038400006E221EE42EE6CE17CE7E2CF07E225EEF4
:1038500046EE6DE17CE7DCCF08E221E045EE6EE16B
:103860007CE7D6CF15968C91882319F01092C5026B
:10387000D3CF81E0D1CF9093CC028093CB02089537
:103880000E94BB15811103C08091C6020895E0918A
:10389000CB02F091CC02309729F00190F081E02D1D
:1038A0000995089580E008950E94401C0895E091D4
:1038B000CB02F091CC02309721F00280F381E02D11
:1038C00009950895E091CB02F091CC02309739F040
:1038D00022E0DC012C930680F781E02D0995089504
:1038E000A3E0B0E0E6E7FCE10C94F6262091C902E3
:1038F0003091CA0228173907A1F09093CA02809329
:10390000C902E091CB02F091CC02309751F023E054
:1039100029839B838A830084F185E02DCE01019663
:1039200009952396E2E00C941227A3E0B0E0EBE9BE
:10393000FCE10C94F6262091C7023091C8022817AA
:103940003907A1F09093C8028093C702E091CB029F
:10395000F091CC02309751F024E029839B838A8335
:103960000084F185E02DCE01019609952396E2E0D1
:103970000C94122740910001509101019A012E5F91
:103980003F4F485F5F4F80E02417350709F40895E3
:10399000F90191919F019923B9F38F5FF5CF8823A6
:1039A00071F02091000130910101F9013296285FF8
:1039B0003F4F9191981729F0E217F307D1F780E074
:1039C000089581E008959C01FC0132969FEF80E00C
:1039D0004191461751F09F3F19F4411101C0982FB2
:1039E0008F5F8630A9F79F3F09F40895290F311D95
:1039F00097FD3A95F90162830895FC013296089685
:103A00002191261303C0DF0111971C92E817F907D3
:103A1000B9F70895682F80910001909101010E94EB
:103A2000E31C0895682F80910001909101010E948C
:103A3000FD1C0895E0910001F0910101329686E0AD
:103A4000DF011D928A95E9F70895DC01FB011196CB
:103A50009C9111978181981322C012968C91129794
:103A6000882319F0928189131AC013968C911397A9
:103A7000882319F09381891312C015968C9115979C
:103A8000882319F0958189130AC014969C91992373
:103A900021F081E02481291303C080E001C081E08E
:103AA0008170089508950E94521D0895811106C0E5
:103AB00081E08093CD020E94531D089582E0F9CFEA
:103AC00083E08093CD020E94531D08950E94561DED
:103AD000089581E08093CD020E94531D08950E94B5
:103AE000691D0895089508950E94731D089508950D
:103AF00008950E94721D0895CF930E94771D0E9421
:103B000025150E94781DC0E08C2F0E94AE13892BD2
:103B100031F4CF5FCC30C1F780E0CF91089581E0E0
:103B2000FCCF85B7806885BF85B7806885BF08955D
:103B30001F921FB61F9211248F939F93AF93BF9331
:103B40008091CE02811113C08091110390911203D4
:103B5000A0911303B09114034196A11DB11D809350
:103B6000110390931203A0931303B0931403BF9116
:103B7000AF919F918F911F901FBE1F9018958091BC
:103B80001903843031F10E9444061092CE0288E17C
:103B900090E020E40FB6F894A895809360000FBEE3
:103BA0002093600083B7817F846083BF83B7816087
:103BB00083BF7894889583B78E7F83BF0FB6F894C0
:103BC000A8958091600088618093600010926000E9
:103BD0000FBE08950E942C0A0E944906089582E0B3
:103BE00084BD93E095BD9AEF97BD80936E000895D4
:103BF0002FB7F8948091110390911203A0911303B1
:103C0000B09114032FBF08952FB7F894609111035A
:103C10007091120380911303909114032FBF0895A4
:103C20009C014FB7F8948091110390911203A091D9
:103C30001303B09114034FBF821B930B0895CF92CF
:103C4000DF92EF92FF922FB7F894C0901103D090BB
:103C50001203E0901303F09014032FBFA701960105
:103C6000261B370B480B590BCA01B901FF90EF9087
:103C7000DF90CF90089578941F921FB61F92112461
:103C80008F939F93AF93BF938091110390911203F1
:103C9000A0911303B09114030196A11DB11D80934F
:103CA000110390931203A0931303B0931403BF91D5
:103CB000AF919F918F911F901FBE1F90189587E71E
:103CC00097E7909301088093000888E19AE00FB687
:103CD000F894A895809360000FBE90936000FFCF8A
:103CE00088E19AE00FB6F894A895809360000FBE23
:103CF00090936000FFCF8EE1489B02C08150E1F7B6
:103D0000489BFECF0895589880E28A95F1F7589A1B
:103D10000895FC013BE03A95F1F798E020E080E05F
:103D200031E040E14A95F1F7880F489B02C081607D
:103D3000232742E04A95F1F7000040E14A95F1F768
:103D4000915079F790E19A95F1F799B132E03A956F
:103D5000F1F7000040E14A95F1F791709227208138
:103D6000920F90830895A1E0B0E0E9EBFEE10C949E
:103D7000F22619828C017C01E60EF11C0E151F053E
:103D800041F481E09981911180E02196E6E00C9464
:103D90000E270E947B1ECE0101960E94891EF8010B
:103DA00081938F01EBCF509A589A08955098589A62
:103DB000E89AE9E6F0E080818C7F80830895615085
:103DC000770B91E001C0990F6A95EAF720E031E0A6
:103DD000911108C0222391F0589A80E28A95F1F758
:103DE00058980895492F482339F0589A232740E2DC
:103DF0004A95F1F79695ECCF5898F9CF5898EDCFB2
:103E0000FF920F931F93CF93DF93EC018C01060F6A
:103E1000111DC017D10729F4CDB7DEB7E5E00C942A
:103E20000F27F9900E94831E68E08F2D0E94DF1EED
:103E3000F0CF1F920F920FB60F9211240F931F9382
:103E40002F933F934F935F936F937F938F939F93A2
:103E5000AF93BF93EF93FF93CF93DF930F92CDB7C1
:103E6000DEB719820E947B1ECE0101960E94891E38
:103E7000082F069506950695282F22952570902FD8
:103E80009570290F922F937026952695920F98275B
:103E900097708981982B09F05CC0043008F059C0F4
:103EA00080E18A95F1F7589A509A82E08A95F1F765
:103EB00000C0589888E0089F80011124D801AD5EA9
:103EC000BE4F1696ED91FC9117973097A9F060912F
:103ED000C0017091C10114962D913C911597260F48
:103EE000371F11968D919C911297680F791F139629
:103EF0004C9113978C910995F801ED5EFE4F63810B
:103F0000662351F02091C0013091C10184819581D7
:103F1000820F931F0E94001F0E94831E80E18A95DA
:103F2000F1F758985098589A80E18A95F1F7F8017E
:103F3000ED5EFE4F6081662351F02091C00130910B
:103F4000C10181819281820F931F0E94B31E0E9442
:103F50007B1E0F90DF91CF91FF91EF91BF91AF91B9
:103F60009F918F917F916F915F914F913F912F9191
:103F70001F910F910F900FBE0F901F9018950F93E8
:103F80001F93CF93DF93EC0104970CF04CC0F8948F
:103F9000509A589885E08A95F1F700009C2F9695E5
:103FA00095708C2F8570980F892F837096959695B4
:103FB00023E0CC0FDD1F2A95E1F7980F8E01092B26
:103FC0000E94831E00C068E0802F0E94DF1E80E1F7
:103FD0008A95F1F75098589A489B1EC087E090E068
:103FE00048991CC0FE01ED5EFE4F63816623F9F027
:103FF0002091C0013091C10184819581820F931F6E
:104000000E94B31E811113C0509A589A7894DF9180
:10401000CF911F910F91089500C0DECF019729F431
:10402000509A589A789480E0F2CF00C0D9CF0E947D
:104030007B1E80E28A95F1F75898509A80E18A9524
:10404000F1F7CD5EDE4F6881662351F02091C0010B
:104050003091C10189819A81820F931F0E94001FB4
:104060000E94831E789481E0D2CF8091D702089578
:1040700008959B01BA01909119039430E9F48F706F
:104080008093E9009FEF8091E800915085FD06C084
:1040900085ED8A95F1F700009111F5CF8091E80048
:1040A00085FF0AC050E040E0C9010E9433228091A0
:1040B000E8008E778093E800089543E050E0BC016B
:1040C00082E00E943920089546E050E0BC0182E081
:1040D0000E9439200895CF93DF93EC0148E050E02F
:1040E000BC0181E00E94392088E0FE01AFECB2E023
:1040F00001900D928A95E1F7DF91CF91089580911B
:104100001803811109C00E94C3230E9420248091BA
:10411000E20084608093E2000895109218030895ED
:104120000E94691D08956091150381E0611101C02D
:1041300080E00E94601D08959091190381E0943001
:1041400009F080E0609115030E94661D089542E029
:1041500061EC81E00E943F2342E261EC82E00E9438
:104160003F239091190381E0943009F080E0609141
:1041700015030E94561D089580911B03833009F496
:1041800061C030F48130D1F1823009F49EC00895CD
:104190008A3009F48AC08B3009F46FC0893009F085
:1041A00050C080911A03813209F04BC080911E03E8
:1041B00090911F03029708F044C08091E800877F28
:1041C0008093E8008091E80082FF37C09091F3006F
:1041D0008091F200029731F48091F100813011F06A
:1041E000863021F48091F1008093D7028091E8001D
:1041F0008B778093E8000E94732323C080911A0379
:10420000813AF9F48091E800877F8093E8008091FB
:104210001E0390911F03892B61F468E08FEC92E0FC
:1042200070E00E9482228091E8008B778093E80002
:10423000089560E090E080E0F3CF80911903811150
:10424000C1CF089580911A03813AD9F780911E0356
:1042500090911F03892BA9F78091E800877F8093B5
:10426000E8008091E80080FFFCCF80913D018093C1
:10427000F1008091E8008E77BCCF80911A038132E3
:1042800001F780911E0390911F03892BD1F6809135
:10429000E800877F8093E8000E94732380911C03CD
:1042A00080933D010E942C0A089580911A03813267
:1042B00041F68091E800877F8093E8000E94732395
:1042C00080911D038093D802089580911A03813A4A
:1042D00009F0B7CF8091E800877F8093E800809154
:1042E000E80080FFFCCF8091D802C1CF84B7877FE0
:1042F00084BF0FB6F894A895809160008861809380
:104300006000109260000FBE80E890E00FB6F89455
:1043100080936100909361000FBE0E946F1D08950D
:104320000E94C3230E942024E2EEF0E0808184609A
:10433000808378940E949F26089583E391E00E94F1
:104340003B1C089580911903853031F48091190345
:10435000853019F00E94EA1D08950E94BF1D8091CA
:104360001703882399F30E947C1D882379F30E9408
:104370001D220E942C0AEACF08959A014091200341
:10438000509121030E94C5210895492F552743309C
:10439000510519F168F44130510509F444C0423027
:1043A000510509F445C090E080E050E040E025C0B0
:1043B0004132510549F142325105A9F784E490E0B8
:1043C00042E15AE061157105C1F08BE790E047E9E1
:1043D00059E06130710589F0E6CF99278130910568
:1043E00081F0009729F00297F1F6ECE1F9E002C0C4
:1043F000E6E4F9E0849190E0AF01F9015183408354
:104400000895EEE2F9E0F6CF89E090E04CE559E05E
:104410006115710591F389E090E045E759E061305D
:10442000710559F3C0CF82E190E045E859E0E5CF4E
:104430008BE390E04AE459E0E0CF80E189BD82E17E
:1044400089BD09B400FEFDCF8091D8008F7D809397
:10445000D8008091E00082608093E0008091E000CD
:1044600081FDFCCF0895AF92BF92CF92DF92FF9271
:104470000F931F93CF93DF936C01EB018A010E948E
:104480009223F82E811123C00115110539F0F8018E
:1044900080819181C81BD90BC80ED91EB12CA12CCB
:1044A0002097A9F08091E80085FD22C08091E80066
:1044B0008E778093E80001151105A1F0F801808145
:1044C0009181A80EB91EB182A08285E0F82E8F2DB1
:1044D000DF91CF911F910F91FF90DF90CF90BF9010
:1044E000AF9008950E9492238823D1F2F82EEFCF47
:1044F000F60181916F018093F1002197FFEFAF1AD0
:10450000BF0ACECFFC018091200390912103861732
:104510009707A0F06115710529F49091E8009E7746
:104520009093E80090E06115710551F4911108C075
:104530008091E80082FF34C080E00895BC01F2CF92
:10454000809119038823C1F18530C1F18091E80081
:1045500083FD30C08091E80082FDEACF8091E800C1
:1045600080FFE1CF8091F3002091F200382F611598
:10457000710519F02830310558F091E028303105E7
:1045800009F090E02091E8002E772093E800CBCF4F
:1045900081918093F100615071092F5F3F4FE7CF08
:1045A00080911903882341F0853041F08091E80023
:1045B00083FFBECF81E0089582E0089583E00895EF
:1045C000FC01809120039091210386179707A0F0AA
:1045D0006115710529F48091E8008E778093E800D9
:1045E00090E06115710551F4911108C08091E800C7
:1045F00082FF35C080E00895BC01F2CF809119039D
:104600008823C9F18530C9F18091E80083FD31C06C
:104610008091E80082FDEACF8091E80080FFE1CF41
:104620008091F3002091F200382F6115710519F087
:104630002830310558F091E02830310509F090E03C
:104640008091E8008E778093E800CBCF84918093AF
:10465000F1003196615071092F5F3F4FE6CF809195
:104660001903882341F0853041F08091E80083FFF1
:10467000BDCF81E0089582E0089583E00895982FEA
:10468000973028F08F708093E90081E0089590932F
:10469000E900242F762F50E0981731F07091EC004C
:1046A0002091ED005091F00021FD02C09F5FE8CF06
:1046B0003091EB003E7F3093EB003091ED003D7F79
:1046C0003093ED003091EB0031603093EB0070934C
:1046D000EC002093ED005093F0002091EE0027FDB8
:1046E000E5CF80E0089580911A0387FF13C0809181
:1046F000E80082FF06C08091E8008B778093E80095
:1047000004C0809119038111F2CF0895809119039B
:104710008823D9F38091E80080FFF8CF8091E800EA
:104720008E77ECCF2091E4003091E50095E6A90169
:104730002091EC00822F817020FF06C08091E8005C
:1047400080FF06C080E008952091E80022FD1AC095
:1047500080911903882389F0853089F08091EB00DE
:1047600085FD0FC02091E4003091E500421753070A
:10477000F9F29150E1F684E0089582E0089583E033
:10478000089581E008950E9432240E943A24E0EEC8
:10479000F0E0808181608083E8EDF0E080818F77B8
:1047A000808319BCA7EDB0E08C918E7F8C938081C3
:1047B0008F7E80831092180308950F931F93CF93D9
:1047C000DF930E9432240E943A24C8EDD0E0888111
:1047D0008F77888388818068888388818F7D8883AC
:1047E00019BC10921903109215031092170310921E
:1047F000160300EE10E0F80180818B7F80838881B2
:104800008160888342E060E080E00E943F23E1EE27
:10481000F0E080818E7F8083E2EEF0E08081816035
:104820008083808188608083F80180818E7F80838F
:10483000888180618883DF91CF911F910F910895C6
:10484000E8EDF0E080818F7E8083E7EDF0E080810D
:104850008160808384E082BF81E0809318030E949E
:10486000DD230895E8EDF0E080818E7F8083109253
:10487000E20008951092DA001092E10008951F926C
:104880000F920FB60F9211242F933F934F935F9384
:104890006F937F938F939F93AF93BF93EF93FF9308
:1048A0008091E10082FF0BC08091E20082FF07C08F
:1048B0008091E1008B7F8093E1000E949E26809191
:1048C000DA0080FF19C08091D80080FF15C0809168
:1048D000DA008E7F8093DA008091D90080FF96C045
:1048E00080E189BD82E189BD09B400FEFDCF81E090
:1048F000809319030E947F208091E10080FF19C0FE
:104900008091E20080FF15C08091E2008E7F80934D
:10491000E2008091E20080618093E2008091D80003
:1049200080628093D80019BC85E0809319030E94AF
:1049300093208091E10084FF2BC08091E20084FFEE
:1049400027C080E189BD82E189BD89B5982F91702A
:1049500080FFFBCF8091D8008F7D8093D80080911D
:10496000E1008F7E8093E1008091E2008F7E809352
:10497000E2008091E20081608093E2008091150363
:10498000882309F449C084E0809319030E949C2085
:104990008091E10083FF29C08091E20083FF25C060
:1049A0008091E100877F8093E10082E0809319038A
:1049B000109215038091E1008E7F8093E100809139
:1049C000E2008E7F8093E2008091E200806180931C
:1049D000E20042E060E080E00E943F238091F0002E
:1049E00088608093F0000E949020FF91EF91BF912A
:1049F000AF919F918F917F916F915F914F913F9177
:104A00002F910F900FBE0F901F90189519BC109208
:104A100019030E948D2070CF8091E30087FD93E001
:104A200090931903B3CF1F920F920FB60F921124D8
:104A30002F933F934F935F936F937F938F939F93A6
:104A4000AF93BF93CF93DF93EF93FF93D091E900A0
:104A5000DF708091EC00C82FC17080FDC0E810921B
:104A6000E9008091F000877F8093F00078940E94A5
:104A700057251092E9008091F00088608093F00043
:104A8000CD2BCF70C093E900FF91EF91DF91CF91D3
:104A9000BF91AF919F918F917F916F915F914F9156
:104AA0003F912F910F900FBE0F901F901895AAE283
:104AB000B0E0EDE5F5E20C94F5268AE193E0209173
:104AC000F100FC012193CF01F3E082329F07B9F797
:104AD0000E94BC208091E80083FF1EC180911A03D0
:104AE00090911B039A3008F017C1E92FF0E0E053D2
:104AF000F84D0C94E026803899F0823809F00CC10A
:104B000080911E038F70873008F006C18093E90002
:104B10008091EB0085FB882780F91092E90006C0A0
:104B20008091160390911703911182609091E80093
:104B3000977F9093E8008093F1001092F1008091AC
:104B4000E8008E77E5C0882309F4D3C0823009F0ED
:104B5000E3C080911C038111D6C080911E038F7029
:104B60002FEF280F263008F0D7C08093E90020915E
:104B7000EB0020FFC8C0933031F48091EB008062DD
:104B80008093EB00C0C09091EB0090619093EB009C
:104B900021E030E001C0220F8A95EAF72093EA0075
:104BA0001092EA008091EB008860EACF8111B4C0D6
:104BB00010911C031F778091E3008078812B8093F4
:104BC000E3008091E800877F8093E8000E947323D0
:104BD0008091E80080FFFCCF8091E30080688093A3
:104BE000E30082E0111183E08093190395C080589F
:104BF000823008F091C080911C0390911D038C3D80
:104C000023E09207A1F583E08A838AE289834FB784
:104C1000F894DE01139620E03EE051E2E32FF0E04D
:104C200050935700E49120FF03C0E295EF703F5F7F
:104C3000EF708E2F90E0EA30C0F0C7968D939D9371
:104C40002F5F243159F74FBF8091E800877F809311
:104C5000E8006AE270E0CE0101960E948222809113
:104C6000E8008B778093E80057C0C096E7CF60914B
:104C70001E0370911F03AE014F5F5F4F0E94BD2165
:104C8000BC01892B09F448C09091E800977F90936C
:104C9000E80089819A810E94E022E1CF8038E1F525
:104CA0008091E800877F8093E800809115038093CE
:104CB000F10045CF811130C090911C03923060F516
:104CC0008091E800877F8093E800909315030E940D
:104CD000732380911503882311F084E005C080912F
:104CE000E30087FDFACF81E0809319030E94A7209B
:104CF00013C080911C03813079F481E0933009F076
:104D000080E0809317031092E9008091E800877F8C
:104D10008093E8000E9473238091E80083FF0AC01B
:104D20008091E800877F8093E8008091EB008062AB
:104D30008093EB00AA96E3E00C9411270895CF939B
:104D4000809119038823A1F0C091E900CF70909160
:104D5000EC00892F817090FD80E8C82B1092E9004B
:104D60008091E80083FD0E945725CF70C093E90031
:104D7000CF9108950E94C323109219030895E8ED7E
:104D8000F0E08081806180838AE18A95F1F700C03C
:104D90008091D9008170089597FB072E16F4009436
:104DA00007D077FD09D00E941D2707FC05D03EF4EF
:104DB000909581959F4F0895709561957F4F0895C7
:104DC000EE0FFF1F0590F491E02D09942F923F9272
:104DD0004F925F926F927F928F929F92AF92BF920B
:104DE000CF92DF92EF92FF920F931F93CF93DF93B7
:104DF000CDB7DEB7CA1BDB0B0FB6F894DEBF0FBE14
:104E0000CDBF09942A88398848885F846E847D8460
:104E10008C849B84AA84B984C884DF80EE80FD8062
:104E20000C811B81AA81B981CE0FD11D0FB6F894D8
:104E3000DEBF0FBECDBFED010895AA1BBB1B51E124
:104E400007C0AA1FBB1FA617B70710F0A61BB70BFA
:104E5000881F991F5A95A9F780959095BC01CD019F
:104E60000895FB01DC0104C08D910190801921F4AB
:104E700041505040C8F7881B990B0895FB01DC0195
:104E800002C001900D9241505040D8F70895F99911
:104E9000FECF92BD81BDF89A992780B50895A8E10B
:104EA000B0E042E050E00C948B27DC01A40FB51F6A
:104EB0004150504048F0CB01840F951F2E910E9425
:104EC000662741505040D0F70895262FF999FECF1C
:104ED00092BD81BDF89A019700B4021639F01FBA4D
:104EE00020BD0FB6F894FA9AF99A0FBE089503966A
:104EF000272F0E9466270E946527252F0E9466277C
:104F0000242F0C9466270196272F0E9466270C9465
:104F10006527DC01CB01FC01F999FECF06C0F2BD8B
:104F2000E1BDF89A319600B40D9241505040B8F767
:104F30000895F894FFCF2808280878087808DD0835
:104F4000F90857085708FE086F097E097E09791885
:104F5000ED1881184B184F18851853188918951893
:104F60005F18E6186318991867189D18C5186B180C
:104F7000A118CC187118A718AF1857188D185B18FE
:104F800091187518AB18BB18D518E41845187D187A
:104F9000F418141C1A1C031C0E1C201C261C2C1C90
:104FA0007B25A3258C26A3258C26D625F7258C26A4
:044FB0004E265A2609
:104FB4005602F5F43534C69766949293F6F7313376
:104FC40032360100000001000000000000000C0166
:104FD400000000040D000000000000280850011E1D
:104FE4000A140135206B20382064205D2001F6F777
:104FF40031333236F5F43534C69766949293E20031
:10500400E900EA00B500B600B700CD008301CC008A
:105014008A0192019401210223022402250226021C
:1050240027022A02B300B4006F0070009F01CB0175
:105034009F02A002818283E200E900EA00B500B683
:1050440000B700CD008301CC008A019201940121B4
:1050540002230224022502260227022A02B300B4F4
:10506400006F0070009F01CB019F02A00281828328
:025074008C02AC
:00000001FF
